{
  "_format": "hh-sol-artifact-1",
  "contractName": "Registry",
  "sourceName": "contracts/registry.sol",
  "abi": [
    {
      "inputs": [],
      "stateMutability": "nonpayable",
      "type": "constructor"
    },
    {
      "anonymous": false,
      "inputs": [
        {
          "indexed": false,
          "internalType": "uint256",
          "name": "_custID",
          "type": "uint256"
        },
        {
          "indexed": false,
          "internalType": "string",
          "name": "_name",
          "type": "string"
        }
      ],
      "name": "cusIdResult",
      "type": "event"
    },
    {
      "anonymous": false,
      "inputs": [
        {
          "indexed": false,
          "internalType": "uint256",
          "name": "_srPID",
          "type": "uint256"
        },
        {
          "indexed": false,
          "internalType": "string",
          "name": "_name",
          "type": "string"
        }
      ],
      "name": "serviceProviderIdResult",
      "type": "event"
    },
    {
      "inputs": [
        {
          "internalType": "uint256",
          "name": "",
          "type": "uint256"
        }
      ],
      "name": "Customers",
      "outputs": [
        {
          "internalType": "uint256",
          "name": "custID",
          "type": "uint256"
        },
        {
          "internalType": "address payable",
          "name": "id",
          "type": "address"
        },
        {
          "internalType": "string",
          "name": "name",
          "type": "string"
        },
        {
          "internalType": "string",
          "name": "location",
          "type": "string"
        }
      ],
      "stateMutability": "view",
      "type": "function"
    },
    {
      "inputs": [
        {
          "internalType": "uint256",
          "name": "",
          "type": "uint256"
        }
      ],
      "name": "Rating",
      "outputs": [
        {
          "internalType": "uint256",
          "name": "identityNo",
          "type": "uint256"
        },
        {
          "internalType": "uint256",
          "name": "rating",
          "type": "uint256"
        },
        {
          "internalType": "uint256",
          "name": "customerCount",
          "type": "uint256"
        }
      ],
      "stateMutability": "view",
      "type": "function"
    },
    {
      "inputs": [
        {
          "internalType": "address payable",
          "name": "_id",
          "type": "address"
        },
        {
          "internalType": "string",
          "name": "_name",
          "type": "string"
        },
        {
          "internalType": "string",
          "name": "_location",
          "type": "string"
        }
      ],
      "name": "addCustomer",
      "outputs": [],
      "stateMutability": "nonpayable",
      "type": "function"
    },
    {
      "inputs": [
        {
          "internalType": "address payable",
          "name": "_id",
          "type": "address"
        },
        {
          "internalType": "string",
          "name": "_name",
          "type": "string"
        },
        {
          "internalType": "string",
          "name": "_serviceCategory",
          "type": "string"
        },
        {
          "internalType": "string",
          "name": "_location",
          "type": "string"
        }
      ],
      "name": "addServiceProvider",
      "outputs": [],
      "stateMutability": "nonpayable",
      "type": "function"
    },
    {
      "inputs": [
        {
          "internalType": "uint256",
          "name": "_identityNo",
          "type": "uint256"
        },
        {
          "internalType": "uint256",
          "name": "_rating",
          "type": "uint256"
        }
      ],
      "name": "addServiceRating",
      "outputs": [],
      "stateMutability": "nonpayable",
      "type": "function"
    },
    {
      "inputs": [],
      "name": "owner",
      "outputs": [
        {
          "internalType": "address payable",
          "name": "",
          "type": "address"
        }
      ],
      "stateMutability": "view",
      "type": "function"
    },
    {
      "inputs": [
        {
          "internalType": "uint256",
          "name": "",
          "type": "uint256"
        }
      ],
      "name": "serviceProviders",
      "outputs": [
        {
          "internalType": "uint256",
          "name": "_ServiceProviderId",
          "type": "uint256"
        },
        {
          "internalType": "address payable",
          "name": "id",
          "type": "address"
        },
        {
          "internalType": "string",
          "name": "name",
          "type": "string"
        },
        {
          "internalType": "string",
          "name": "serviceCategory",
          "type": "string"
        },
        {
          "internalType": "string",
          "name": "location",
          "type": "string"
        }
      ],
      "stateMutability": "view",
      "type": "function"
    },
    {
      "inputs": [
        {
          "internalType": "uint256",
          "name": "_identityNo",
          "type": "uint256"
        }
      ],
      "name": "viewRating",
      "outputs": [
        {
          "components": [
            {
              "internalType": "uint256",
              "name": "identityNo",
              "type": "uint256"
            },
            {
              "internalType": "uint256",
              "name": "rating",
              "type": "uint256"
            },
            {
              "internalType": "uint256",
              "name": "customerCount",
              "type": "uint256"
            }
          ],
          "internalType": "struct Registry.serviceRating",
          "name": "",
          "type": "tuple"
        }
      ],
      "stateMutability": "view",
      "type": "function"
    },
    {
      "inputs": [
        {
          "internalType": "uint256",
          "name": "_id",
          "type": "uint256"
        }
      ],
      "name": "viewSUser",
      "outputs": [
        {
          "components": [
            {
              "internalType": "uint256",
              "name": "custID",
              "type": "uint256"
            },
            {
              "internalType": "address payable",
              "name": "id",
              "type": "address"
            },
            {
              "internalType": "string",
              "name": "name",
              "type": "string"
            },
            {
              "internalType": "string",
              "name": "location",
              "type": "string"
            }
          ],
          "internalType": "struct Registry.customerMembership",
          "name": "",
          "type": "tuple"
        }
      ],
      "stateMutability": "view",
      "type": "function"
    }
  ],
  "bytecode": "0x608060405234801561001057600080fd5b50336000806101000a81548173ffffffffffffffffffffffffffffffffffffffff021916908373ffffffffffffffffffffffffffffffffffffffff1602179055506113b6806100606000396000f3fe608060405234801561001057600080fd5b50600436106100935760003560e01c8063a8f60d7c11610066578063a8f60d7c14610136578063aa6e06ff14610166578063bcb8b23114610199578063be70d404146101b5578063dcb23bd4146101e757610093565b80630a02dcc71461009857806311e1fd8e146100cc5780636d59a6b8146100fc5780638da5cb5b14610118575b600080fd5b6100b260048036038101906100ad9190610de7565b610203565b6040516100c3959493929190611051565b60405180910390f35b6100e660048036038101906100e19190610de7565b6103f1565b6040516100f39190610fc1565b60405180910390f35b61011660048036038101906101119190610d3c565b6105a2565b005b610120610753565b60405161012d9190610fa6565b60405180910390f35b610150600480360381019061014b9190610de7565b610777565b60405161015d9190610fe3565b60405180910390f35b610180600480360381019061017b9190610de7565b6107c2565b6040516101909493929190610ffe565b60405180910390f35b6101b360048036038101906101ae9190610cbd565b610922565b005b6101cf60048036038101906101ca9190610de7565b610a57565b6040516101de939291906110e9565b60405180910390f35b61020160048036038101906101fc9190610e10565b610a81565b005b60046020528060005260406000206000915090508060000154908060010160009054906101000a900473ffffffffffffffffffffffffffffffffffffffff169080600201805461025290611282565b80601f016020809104026020016040519081016040528092919081815260200182805461027e90611282565b80156102cb5780601f106102a0576101008083540402835291602001916102cb565b820191906000526020600020905b8154815290600101906020018083116102ae57829003601f168201915b5050505050908060030180546102e090611282565b80601f016020809104026020016040519081016040528092919081815260200182805461030c90611282565b80156103595780601f1061032e57610100808354040283529160200191610359565b820191906000526020600020905b81548152906001019060200180831161033c57829003601f168201915b50505050509080600401805461036e90611282565b80601f016020809104026020016040519081016040528092919081815260200182805461039a90611282565b80156103e75780601f106103bc576101008083540402835291602001916103e7565b820191906000526020600020905b8154815290600101906020018083116103ca57829003601f168201915b5050505050905085565b6103f9610b29565b60036000838152602001908152602001600020604051806080016040529081600082015481526020016001820160009054906101000a900473ffffffffffffffffffffffffffffffffffffffff1673ffffffffffffffffffffffffffffffffffffffff1673ffffffffffffffffffffffffffffffffffffffff16815260200160028201805461048790611282565b80601f01602080910402602001604051908101604052809291908181526020018280546104b390611282565b80156105005780601f106104d557610100808354040283529160200191610500565b820191906000526020600020905b8154815290600101906020018083116104e357829003601f168201915b5050505050815260200160038201805461051990611282565b80601f016020809104026020016040519081016040528092919081815260200182805461054590611282565b80156105925780601f1061056757610100808354040283529160200191610592565b820191906000526020600020905b81548152906001019060200180831161057557829003601f168201915b5050505050815250509050919050565b60008054906101000a900473ffffffffffffffffffffffffffffffffffffffff1673ffffffffffffffffffffffffffffffffffffffff163373ffffffffffffffffffffffffffffffffffffffff16146105fa57600080fd5b6106046002610b05565b60006106106002610b1b565b905060006040518060a001604052808381526020018773ffffffffffffffffffffffffffffffffffffffff16815260200186815260200185815260200184815250905080600460008481526020019081526020016000206000820151816000015560208201518160010160006101000a81548173ffffffffffffffffffffffffffffffffffffffff021916908373ffffffffffffffffffffffffffffffffffffffff16021790555060408201518160020190805190602001906106d4929190610b67565b5060608201518160030190805190602001906106f1929190610b67565b50608082015181600401908051906020019061070e929190610b67565b509050507f862596002b34ff0058afc14a9a30c85e10f5a9a68a7c86a240625992038b3ec682866040516107439291906110b9565b60405180910390a1505050505050565b60008054906101000a900473ffffffffffffffffffffffffffffffffffffffff1681565b61077f610bed565b6005600083815260200190815260200160002060405180606001604052908160008201548152602001600182015481526020016002820154815250509050919050565b60036020528060005260406000206000915090508060000154908060010160009054906101000a900473ffffffffffffffffffffffffffffffffffffffff169080600201805461081190611282565b80601f016020809104026020016040519081016040528092919081815260200182805461083d90611282565b801561088a5780601f1061085f5761010080835404028352916020019161088a565b820191906000526020600020905b81548152906001019060200180831161086d57829003601f168201915b50505050509080600301805461089f90611282565b80601f01602080910402602001604051908101604052809291908181526020018280546108cb90611282565b80156109185780601f106108ed57610100808354040283529160200191610918565b820191906000526020600020905b8154815290600101906020018083116108fb57829003601f168201915b5050505050905084565b61092c6001610b05565b60006109386001610b1b565b9050600060405180608001604052808381526020018673ffffffffffffffffffffffffffffffffffffffff16815260200185815260200184815250905080600360008481526020019081526020016000206000820151816000015560208201518160010160006101000a81548173ffffffffffffffffffffffffffffffffffffffff021916908373ffffffffffffffffffffffffffffffffffffffff16021790555060408201518160020190805190602001906109f6929190610b67565b506060820151816003019080519060200190610a13929190610b67565b509050507fad11e82bd007e9f52090f5625cece1515a2f13f5b52209268869fa5f533152c08285604051610a489291906110b9565b60405180910390a15050505050565b60056020528060005260406000206000915090508060000154908060010154908060020154905083565b600060056000848152602001908152602001600020600201549050600181610aa991906111ae565b905060006040518060600160405280858152602001848152602001838152509050806005600086815260200190815260200160002060008201518160000155602082015181600101556040820151816002015590505050505050565b6001816000016000828254019250508190555050565b600081600001549050919050565b604051806080016040528060008152602001600073ffffffffffffffffffffffffffffffffffffffff16815260200160608152602001606081525090565b828054610b7390611282565b90600052602060002090601f016020900481019282610b955760008555610bdc565b82601f10610bae57805160ff1916838001178555610bdc565b82800160010185558215610bdc579182015b82811115610bdb578251825591602001919060010190610bc0565b5b509050610be99190610c0e565b5090565b60405180606001604052806000815260200160008152602001600081525090565b5b80821115610c27576000816000905550600101610c0f565b5090565b6000610c3e610c3984611151565b611120565b905082815260208101848484011115610c5657600080fd5b610c61848285611240565b509392505050565b600081359050610c7881611352565b92915050565b600082601f830112610c8f57600080fd5b8135610c9f848260208601610c2b565b91505092915050565b600081359050610cb781611369565b92915050565b600080600060608486031215610cd257600080fd5b6000610ce086828701610c69565b935050602084013567ffffffffffffffff811115610cfd57600080fd5b610d0986828701610c7e565b925050604084013567ffffffffffffffff811115610d2657600080fd5b610d3286828701610c7e565b9150509250925092565b60008060008060808587031215610d5257600080fd5b6000610d6087828801610c69565b945050602085013567ffffffffffffffff811115610d7d57600080fd5b610d8987828801610c7e565b935050604085013567ffffffffffffffff811115610da657600080fd5b610db287828801610c7e565b925050606085013567ffffffffffffffff811115610dcf57600080fd5b610ddb87828801610c7e565b91505092959194509250565b600060208284031215610df957600080fd5b6000610e0784828501610ca8565b91505092915050565b60008060408385031215610e2357600080fd5b6000610e3185828601610ca8565b9250506020610e4285828601610ca8565b9150509250929050565b610e5581611204565b82525050565b610e6481611204565b82525050565b6000610e7582611181565b610e7f818561118c565b9350610e8f81856020860161124f565b610e9881611341565b840191505092915050565b6000610eae82611181565b610eb8818561119d565b9350610ec881856020860161124f565b610ed181611341565b840191505092915050565b6000608083016000830151610ef46000860182610f88565b506020830151610f076020860182610e4c565b5060408301518482036040860152610f1f8282610e6a565b91505060608301518482036060860152610f398282610e6a565b9150508091505092915050565b606082016000820151610f5c6000850182610f88565b506020820151610f6f6020850182610f88565b506040820151610f826040850182610f88565b50505050565b610f9181611236565b82525050565b610fa081611236565b82525050565b6000602082019050610fbb6000830184610e5b565b92915050565b60006020820190508181036000830152610fdb8184610edc565b905092915050565b6000606082019050610ff86000830184610f46565b92915050565b60006080820190506110136000830187610f97565b6110206020830186610e5b565b81810360408301526110328185610ea3565b905081810360608301526110468184610ea3565b905095945050505050565b600060a0820190506110666000830188610f97565b6110736020830187610e5b565b81810360408301526110858186610ea3565b905081810360608301526110998185610ea3565b905081810360808301526110ad8184610ea3565b90509695505050505050565b60006040820190506110ce6000830185610f97565b81810360208301526110e08184610ea3565b90509392505050565b60006060820190506110fe6000830186610f97565b61110b6020830185610f97565b6111186040830184610f97565b949350505050565b6000604051905081810181811067ffffffffffffffff8211171561114757611146611312565b5b8060405250919050565b600067ffffffffffffffff82111561116c5761116b611312565b5b601f19601f8301169050602081019050919050565b600081519050919050565b600082825260208201905092915050565b600082825260208201905092915050565b60006111b982611236565b91506111c483611236565b9250827fffffffffffffffffffffffffffffffffffffffffffffffffffffffffffffffff038211156111f9576111f86112b4565b5b828201905092915050565b600061120f82611216565b9050919050565b600073ffffffffffffffffffffffffffffffffffffffff82169050919050565b6000819050919050565b82818337600083830152505050565b60005b8381101561126d578082015181840152602081019050611252565b8381111561127c576000848401525b50505050565b6000600282049050600182168061129a57607f821691505b602082108114156112ae576112ad6112e3565b5b50919050565b7f4e487b7100000000000000000000000000000000000000000000000000000000600052601160045260246000fd5b7f4e487b7100000000000000000000000000000000000000000000000000000000600052602260045260246000fd5b7f4e487b7100000000000000000000000000000000000000000000000000000000600052604160045260246000fd5b6000601f19601f8301169050919050565b61135b81611204565b811461136657600080fd5b50565b61137281611236565b811461137d57600080fd5b5056fea264697066735822122009589d67ddf137af5b753fa1fdecaf79dfc25ab77099967d9346e85ab532d28e64736f6c63430008000033",
  "linkReferences": {},
  "deployedLinkReferences": {}
}