{
  "_format": "hh-sol-artifact-1",
  "contractName": "Vendor",
  "sourceName": "contracts/Vendor.sol",
  "abi": [
    {
      "inputs": [
        {
          "internalType": "address",
          "name": "tokenAddress",
          "type": "address"
        }
      ],
      "stateMutability": "nonpayable",
      "type": "constructor"
    },
    {
      "anonymous": false,
      "inputs": [
        {
          "indexed": false,
          "internalType": "address",
          "name": "buyer",
          "type": "address"
        },
        {
          "indexed": false,
          "internalType": "uint256",
          "name": "amountOfETH",
          "type": "uint256"
        },
        {
          "indexed": false,
          "internalType": "uint256",
          "name": "amountOfTokens",
          "type": "uint256"
        }
      ],
      "name": "BuyTokens",
      "type": "event"
    },
    {
      "inputs": [
        {
          "internalType": "uint256",
          "name": "EthAmount",
          "type": "uint256"
        }
      ],
      "name": "buyTokens",
      "outputs": [],
      "stateMutability": "payable",
      "type": "function"
    },
    {
      "inputs": [],
      "name": "tokensPerEth",
      "outputs": [
        {
          "internalType": "uint256",
          "name": "",
          "type": "uint256"
        }
      ],
      "stateMutability": "view",
      "type": "function"
    },
    {
      "inputs": [],
      "name": "withdraw",
      "outputs": [],
      "stateMutability": "view",
      "type": "function"
    }
  ],
  "bytecode": "0x6080604052606460025534801561001557600080fd5b506040516108b03803806108b0833981810160405281019061003791906100d3565b806000806101000a81548173ffffffffffffffffffffffffffffffffffffffff021916908373ffffffffffffffffffffffffffffffffffffffff16021790555033600160006101000a81548173ffffffffffffffffffffffffffffffffffffffff021916908373ffffffffffffffffffffffffffffffffffffffff16021790555050610145565b6000815190506100cd8161012e565b92915050565b6000602082840312156100e557600080fd5b60006100f3848285016100be565b91505092915050565b60006101078261010e565b9050919050565b600073ffffffffffffffffffffffffffffffffffffffff82169050919050565b610137816100fc565b811461014257600080fd5b50565b61075c806101546000396000f3fe6080604052600436106100345760003560e01c80633610724e146100395780633ccfd60b14610055578063cbdd69b51461006c575b600080fd5b610053600480360381019061004e9190610404565b610097565b005b34801561006157600080fd5b5061006a6102f1565b005b34801561007857600080fd5b50610081610396565b60405161008e91906105fb565b60405180910390f35b600160009054906101000a900473ffffffffffffffffffffffffffffffffffffffff1673ffffffffffffffffffffffffffffffffffffffff166108fc829081150290604051600060405180830381858888f193505050501580156100ff573d6000803e3d6000fd5b506000600254346101109190610627565b905060008060009054906101000a900473ffffffffffffffffffffffffffffffffffffffff1673ffffffffffffffffffffffffffffffffffffffff166370a08231306040518263ffffffff1660e01b815260040161016e9190610540565b60206040518083038186803b15801561018657600080fd5b505afa15801561019a573d6000803e3d6000fd5b505050506040513d601f19601f820116820180604052508101906101be919061042d565b905081811015610203576040517f08c379a00000000000000000000000000000000000000000000000000000000081526004016101fa906105bb565b60405180910390fd5b60008054906101000a900473ffffffffffffffffffffffffffffffffffffffff1673ffffffffffffffffffffffffffffffffffffffff1663a9059cbb33846040518363ffffffff1660e01b815260040161025e92919061055b565b602060405180830381600087803b15801561027857600080fd5b505af115801561028c573d6000803e3d6000fd5b505050506040513d601f19601f820116820180604052508101906102b091906103db565b507f0a37b72bb67eee30e09084cf386f8a17817c57f620c3ab95fb25d6a20356ec773334846040516102e493929190610584565b60405180910390a1505050565b600160009054906101000a900473ffffffffffffffffffffffffffffffffffffffff1673ffffffffffffffffffffffffffffffffffffffff163373ffffffffffffffffffffffffffffffffffffffff161461034b57600080fd5b600047905060008111610393576040517f08c379a000000000000000000000000000000000000000000000000000000000815260040161038a906105db565b60405180910390fd5b50565b60025481565b6000815190506103ab816106f8565b92915050565b6000813590506103c08161070f565b92915050565b6000815190506103d58161070f565b92915050565b6000602082840312156103ed57600080fd5b60006103fb8482850161039c565b91505092915050565b60006020828403121561041657600080fd5b6000610424848285016103b1565b91505092915050565b60006020828403121561043f57600080fd5b600061044d848285016103c6565b91505092915050565b61045f81610681565b82525050565b6000610472603483610616565b91507f56656e646f7220636f6e747261637420686173206e6f7420656e6f756768207460008301527f6f6b656e7320696e206974732062616c616e63650000000000000000000000006020830152604082019050919050565b60006104d8602183610616565b91507f4f776e657220686173206e6f742062616c616e636520746f207769746864726160008301527f77000000000000000000000000000000000000000000000000000000000000006020830152604082019050919050565b61053a816106bf565b82525050565b60006020820190506105556000830184610456565b92915050565b60006040820190506105706000830185610456565b61057d6020830184610531565b9392505050565b60006060820190506105996000830186610456565b6105a66020830185610531565b6105b36040830184610531565b949350505050565b600060208201905081810360008301526105d481610465565b9050919050565b600060208201905081810360008301526105f4816104cb565b9050919050565b60006020820190506106106000830184610531565b92915050565b600082825260208201905092915050565b6000610632826106bf565b915061063d836106bf565b9250817fffffffffffffffffffffffffffffffffffffffffffffffffffffffffffffffff0483118215151615610676576106756106c9565b5b828202905092915050565b600061068c8261069f565b9050919050565b60008115159050919050565b600073ffffffffffffffffffffffffffffffffffffffff82169050919050565b6000819050919050565b7f4e487b7100000000000000000000000000000000000000000000000000000000600052601160045260246000fd5b61070181610693565b811461070c57600080fd5b50565b610718816106bf565b811461072357600080fd5b5056fea264697066735822122024b872611708faa8dfe2201557e7c9d538d38417a2322bf834a4b8dc88c9168b64736f6c63430008000033",
  "linkReferences": {},
  "deployedLinkReferences": {}
}