{
  "_format": "hh-sol-artifact-1",
  "contractName": "UCToken",
  "sourceName": "contracts/UCToken.sol",
  "abi": [
    {
      "inputs": [
        {
          "internalType": "uint256",
          "name": "initialSupply",
          "type": "uint256"
        }
      ],
      "stateMutability": "nonpayable",
      "type": "constructor"
    },
    {
      "anonymous": false,
      "inputs": [
        {
          "indexed": true,
          "internalType": "address",
          "name": "owner",
          "type": "address"
        },
        {
          "indexed": true,
          "internalType": "address",
          "name": "spender",
          "type": "address"
        },
        {
          "indexed": false,
          "internalType": "uint256",
          "name": "value",
          "type": "uint256"
        }
      ],
      "name": "Approval",
      "type": "event"
    },
    {
      "anonymous": false,
      "inputs": [
        {
          "indexed": true,
          "internalType": "address",
          "name": "from",
          "type": "address"
        },
        {
          "indexed": true,
          "internalType": "address",
          "name": "to",
          "type": "address"
        },
        {
          "indexed": false,
          "internalType": "uint256",
          "name": "value",
          "type": "uint256"
        }
      ],
      "name": "Transfer",
      "type": "event"
    },
    {
      "anonymous": false,
      "inputs": [
        {
          "indexed": false,
          "internalType": "address",
          "name": "_recipient",
          "type": "address"
        },
        {
          "indexed": false,
          "internalType": "uint256",
          "name": "_amount",
          "type": "uint256"
        }
      ],
      "name": "TransferResult",
      "type": "event"
    },
    {
      "inputs": [
        {
          "internalType": "address",
          "name": "owner",
          "type": "address"
        },
        {
          "internalType": "address",
          "name": "spender",
          "type": "address"
        }
      ],
      "name": "allowance",
      "outputs": [
        {
          "internalType": "uint256",
          "name": "",
          "type": "uint256"
        }
      ],
      "stateMutability": "view",
      "type": "function"
    },
    {
      "inputs": [
        {
          "internalType": "address",
          "name": "spender",
          "type": "address"
        },
        {
          "internalType": "uint256",
          "name": "amount",
          "type": "uint256"
        }
      ],
      "name": "approve",
      "outputs": [
        {
          "internalType": "bool",
          "name": "",
          "type": "bool"
        }
      ],
      "stateMutability": "nonpayable",
      "type": "function"
    },
    {
      "inputs": [
        {
          "internalType": "address",
          "name": "account",
          "type": "address"
        }
      ],
      "name": "balanceOf",
      "outputs": [
        {
          "internalType": "uint256",
          "name": "",
          "type": "uint256"
        }
      ],
      "stateMutability": "view",
      "type": "function"
    },
    {
      "inputs": [],
      "name": "decimals",
      "outputs": [
        {
          "internalType": "uint8",
          "name": "",
          "type": "uint8"
        }
      ],
      "stateMutability": "view",
      "type": "function"
    },
    {
      "inputs": [
        {
          "internalType": "address",
          "name": "spender",
          "type": "address"
        },
        {
          "internalType": "uint256",
          "name": "subtractedValue",
          "type": "uint256"
        }
      ],
      "name": "decreaseAllowance",
      "outputs": [
        {
          "internalType": "bool",
          "name": "",
          "type": "bool"
        }
      ],
      "stateMutability": "nonpayable",
      "type": "function"
    },
    {
      "inputs": [
        {
          "internalType": "address",
          "name": "spender",
          "type": "address"
        },
        {
          "internalType": "uint256",
          "name": "addedValue",
          "type": "uint256"
        }
      ],
      "name": "increaseAllowance",
      "outputs": [
        {
          "internalType": "bool",
          "name": "",
          "type": "bool"
        }
      ],
      "stateMutability": "nonpayable",
      "type": "function"
    },
    {
      "inputs": [],
      "name": "name",
      "outputs": [
        {
          "internalType": "string",
          "name": "",
          "type": "string"
        }
      ],
      "stateMutability": "view",
      "type": "function"
    },
    {
      "inputs": [],
      "name": "symbol",
      "outputs": [
        {
          "internalType": "string",
          "name": "",
          "type": "string"
        }
      ],
      "stateMutability": "view",
      "type": "function"
    },
    {
      "inputs": [],
      "name": "tokensPerEth",
      "outputs": [
        {
          "internalType": "uint256",
          "name": "",
          "type": "uint256"
        }
      ],
      "stateMutability": "view",
      "type": "function"
    },
    {
      "inputs": [],
      "name": "totalSupply",
      "outputs": [
        {
          "internalType": "uint256",
          "name": "",
          "type": "uint256"
        }
      ],
      "stateMutability": "view",
      "type": "function"
    },
    {
      "inputs": [
        {
          "internalType": "address",
          "name": "recipient",
          "type": "address"
        },
        {
          "internalType": "uint256",
          "name": "amount",
          "type": "uint256"
        }
      ],
      "name": "transfer",
      "outputs": [
        {
          "internalType": "bool",
          "name": "",
          "type": "bool"
        }
      ],
      "stateMutability": "nonpayable",
      "type": "function"
    },
    {
      "inputs": [
        {
          "internalType": "address",
          "name": "sender",
          "type": "address"
        },
        {
          "internalType": "address",
          "name": "recipient",
          "type": "address"
        },
        {
          "internalType": "uint256",
          "name": "amount",
          "type": "uint256"
        }
      ],
      "name": "transferBuy",
      "outputs": [
        {
          "internalType": "bool",
          "name": "",
          "type": "bool"
        }
      ],
      "stateMutability": "nonpayable",
      "type": "function"
    },
    {
      "inputs": [
        {
          "internalType": "address",
          "name": "sender",
          "type": "address"
        },
        {
          "internalType": "address",
          "name": "recipient",
          "type": "address"
        },
        {
          "internalType": "uint256",
          "name": "amount",
          "type": "uint256"
        }
      ],
      "name": "transferFrom",
      "outputs": [
        {
          "internalType": "bool",
          "name": "",
          "type": "bool"
        }
      ],
      "stateMutability": "nonpayable",
      "type": "function"
    }
  ],
  "bytecode": "0x6080604052633b9aca006002556040518060400160405280600e81526020017f557262616e436c6170546f6b656e000000000000000000000000000000000000815250600390805190602001906200005992919062000146565b506040518060400160405280600381526020017f554354000000000000000000000000000000000000000000000000000000000081525060049080519060200190620000a792919062000146565b506001600560006101000a81548160ff021916908360ff1602179055506064600755348015620000d657600080fd5b5060405162001645380380620016458339818101604052810190620000fc91906200020d565b806000803373ffffffffffffffffffffffffffffffffffffffff1673ffffffffffffffffffffffffffffffffffffffff1681526020019081526020016000208190555050620002c2565b828054620001549062000243565b90600052602060002090601f016020900481019282620001785760008555620001c4565b82601f106200019357805160ff1916838001178555620001c4565b82800160010185558215620001c4579182015b82811115620001c3578251825591602001919060010190620001a6565b5b509050620001d39190620001d7565b5090565b5b80821115620001f2576000816000905550600101620001d8565b5090565b6000815190506200020781620002a8565b92915050565b6000602082840312156200022057600080fd5b60006200023084828501620001f6565b91505092915050565b6000819050919050565b600060028204905060018216806200025c57607f821691505b6020821081141562000273576200027262000279565b5b50919050565b7f4e487b7100000000000000000000000000000000000000000000000000000000600052602260045260246000fd5b620002b38162000239565b8114620002bf57600080fd5b50565b61137380620002d26000396000f3fe608060405234801561001057600080fd5b50600436106100cf5760003560e01c806370a082311161008c578063a9059cbb11610066578063a9059cbb1461023c578063bda6e40b1461026c578063cbdd69b51461029c578063dd62ed3e146102ba576100cf565b806370a08231146101be57806395d89b41146101ee578063a457c2d71461020c576100cf565b806306fdde03146100d4578063095ea7b3146100f257806318160ddd1461012257806323b872dd14610140578063313ce56714610170578063395093511461018e575b600080fd5b6100dc6102ea565b6040516100e99190611029565b60405180910390f35b61010c60048036038101906101079190610d9c565b61037c565b604051610119919061100e565b60405180910390f35b61012a61039a565b60405161013791906110cb565b60405180910390f35b61015a60048036038101906101559190610d4d565b6103a4565b604051610167919061100e565b60405180910390f35b61017861047d565b60405161018591906110e6565b60405180910390f35b6101a860048036038101906101a39190610d9c565b610494565b6040516101b5919061100e565b60405180910390f35b6101d860048036038101906101d39190610ce8565b610547565b6040516101e591906110cb565b60405180910390f35b6101f661058f565b6040516102039190611029565b60405180910390f35b61022660048036038101906102219190610d9c565b610621565b604051610233919061100e565b60405180910390f35b61025660048036038101906102519190610d9c565b6106ee565b604051610263919061100e565b60405180910390f35b61028660048036038101906102819190610d4d565b610745565b604051610293919061100e565b60405180910390f35b6102a4610759565b6040516102b191906110cb565b60405180910390f35b6102d460048036038101906102cf9190610d11565b61075f565b6040516102e191906110cb565b60405180910390f35b6060600380546102f9906111fb565b80601f0160208091040260200160405190810160405280929190818152602001828054610325906111fb565b80156103725780601f1061034757610100808354040283529160200191610372565b820191906000526020600020905b81548152906001019060200180831161035557829003601f168201915b5050505050905090565b60006103906103896107e6565b84846107ee565b6001905092915050565b6000600254905090565b60006103b18484846109b9565b610472846103bd6107e6565b61046d856040518060600160405280602881526020016112f160289139600160008b73ffffffffffffffffffffffffffffffffffffffff1673ffffffffffffffffffffffffffffffffffffffff16815260200190815260200160002060006104236107e6565b73ffffffffffffffffffffffffffffffffffffffff1673ffffffffffffffffffffffffffffffffffffffff16815260200190815260200160002054610c4e9092919063ffffffff16565b6107ee565b600190509392505050565b6000600560009054906101000a900460ff16905090565b600061053d6104a16107e6565b8461053885600160006104b26107e6565b73ffffffffffffffffffffffffffffffffffffffff1673ffffffffffffffffffffffffffffffffffffffff16815260200190815260200160002060008973ffffffffffffffffffffffffffffffffffffffff1673ffffffffffffffffffffffffffffffffffffffff16815260200190815260200160002054610ca390919063ffffffff16565b6107ee565b6001905092915050565b60008060008373ffffffffffffffffffffffffffffffffffffffff1673ffffffffffffffffffffffffffffffffffffffff168152602001908152602001600020549050919050565b60606004805461059e906111fb565b80601f01602080910402602001604051908101604052809291908181526020018280546105ca906111fb565b80156106175780601f106105ec57610100808354040283529160200191610617565b820191906000526020600020905b8154815290600101906020018083116105fa57829003601f168201915b5050505050905090565b60006106e461062e6107e6565b846106df8560405180606001604052806025815260200161131960259139600160006106586107e6565b73ffffffffffffffffffffffffffffffffffffffff1673ffffffffffffffffffffffffffffffffffffffff16815260200190815260200160002060008a73ffffffffffffffffffffffffffffffffffffffff1673ffffffffffffffffffffffffffffffffffffffff16815260200190815260200160002054610c4e9092919063ffffffff16565b6107ee565b6001905092915050565b60006107026106fb6107e6565b84846109b9565b7fd204c48403f18909a417c99eb90c064238781aea3ebecd31b1a5a9f1abddcb118383604051610733929190610fe5565b60405180910390a16001905092915050565b60006107528484846109b9565b9392505050565b60075481565b6000600160008473ffffffffffffffffffffffffffffffffffffffff1673ffffffffffffffffffffffffffffffffffffffff16815260200190815260200160002060008373ffffffffffffffffffffffffffffffffffffffff1673ffffffffffffffffffffffffffffffffffffffff16815260200190815260200160002054905092915050565b600033905090565b600073ffffffffffffffffffffffffffffffffffffffff168373ffffffffffffffffffffffffffffffffffffffff16141561085e576040517f08c379a0000000000000000000000000000000000000000000000000000000008152600401610855906110ab565b60405180910390fd5b600073ffffffffffffffffffffffffffffffffffffffff168273ffffffffffffffffffffffffffffffffffffffff1614156108ce576040517f08c379a00000000000000000000000000000000000000000000000000000000081526004016108c59061106b565b60405180910390fd5b80600160008573ffffffffffffffffffffffffffffffffffffffff1673ffffffffffffffffffffffffffffffffffffffff16815260200190815260200160002060008473ffffffffffffffffffffffffffffffffffffffff1673ffffffffffffffffffffffffffffffffffffffff168152602001908152602001600020819055508173ffffffffffffffffffffffffffffffffffffffff168373ffffffffffffffffffffffffffffffffffffffff167f8c5be1e5ebec7d5bd14f71427d1e84f3dd0314c0f7b2291e5b200ac8c7c3b925836040516109ac91906110cb565b60405180910390a3505050565b600073ffffffffffffffffffffffffffffffffffffffff168373ffffffffffffffffffffffffffffffffffffffff161415610a29576040517f08c379a0000000000000000000000000000000000000000000000000000000008152600401610a209061108b565b60405180910390fd5b600073ffffffffffffffffffffffffffffffffffffffff168273ffffffffffffffffffffffffffffffffffffffff161415610a99576040517f08c379a0000000000000000000000000000000000000000000000000000000008152600401610a909061104b565b60405180910390fd5b610aa4838383610cb9565b610b0f816040518060600160405280602681526020016112cb602691396000808773ffffffffffffffffffffffffffffffffffffffff1673ffffffffffffffffffffffffffffffffffffffff16815260200190815260200160002054610c4e9092919063ffffffff16565b6000808573ffffffffffffffffffffffffffffffffffffffff1673ffffffffffffffffffffffffffffffffffffffff16815260200190815260200160002081905550610ba2816000808573ffffffffffffffffffffffffffffffffffffffff1673ffffffffffffffffffffffffffffffffffffffff16815260200190815260200160002054610ca390919063ffffffff16565b6000808473ffffffffffffffffffffffffffffffffffffffff1673ffffffffffffffffffffffffffffffffffffffff168152602001908152602001600020819055508173ffffffffffffffffffffffffffffffffffffffff168373ffffffffffffffffffffffffffffffffffffffff167fddf252ad1be2c89b69c2b068fc378daa952ba7f163c4a11628f55a4df523b3ef83604051610c4191906110cb565b60405180910390a3505050565b6000838311158290610c96576040517f08c379a0000000000000000000000000000000000000000000000000000000008152600401610c8d9190611029565b60405180910390fd5b5082840390509392505050565b60008183610cb1919061111d565b905092915050565b505050565b600081359050610ccd8161129c565b92915050565b600081359050610ce2816112b3565b92915050565b600060208284031215610cfa57600080fd5b6000610d0884828501610cbe565b91505092915050565b60008060408385031215610d2457600080fd5b6000610d3285828601610cbe565b9250506020610d4385828601610cbe565b9150509250929050565b600080600060608486031215610d6257600080fd5b6000610d7086828701610cbe565b9350506020610d8186828701610cbe565b9250506040610d9286828701610cd3565b9150509250925092565b60008060408385031215610daf57600080fd5b6000610dbd85828601610cbe565b9250506020610dce85828601610cd3565b9150509250929050565b610de181611173565b82525050565b610df081611185565b82525050565b6000610e0182611101565b610e0b818561110c565b9350610e1b8185602086016111c8565b610e248161128b565b840191505092915050565b6000610e3c60238361110c565b91507f45524332303a207472616e7366657220746f20746865207a65726f206164647260008301527f65737300000000000000000000000000000000000000000000000000000000006020830152604082019050919050565b6000610ea260228361110c565b91507f45524332303a20617070726f766520746f20746865207a65726f20616464726560008301527f73730000000000000000000000000000000000000000000000000000000000006020830152604082019050919050565b6000610f0860258361110c565b91507f45524332303a207472616e736665722066726f6d20746865207a65726f20616460008301527f64726573730000000000000000000000000000000000000000000000000000006020830152604082019050919050565b6000610f6e60248361110c565b91507f45524332303a20617070726f76652066726f6d20746865207a65726f2061646460008301527f72657373000000000000000000000000000000000000000000000000000000006020830152604082019050919050565b610fd0816111b1565b82525050565b610fdf816111bb565b82525050565b6000604082019050610ffa6000830185610dd8565b6110076020830184610fc7565b9392505050565b60006020820190506110236000830184610de7565b92915050565b600060208201905081810360008301526110438184610df6565b905092915050565b6000602082019050818103600083015261106481610e2f565b9050919050565b6000602082019050818103600083015261108481610e95565b9050919050565b600060208201905081810360008301526110a481610efb565b9050919050565b600060208201905081810360008301526110c481610f61565b9050919050565b60006020820190506110e06000830184610fc7565b92915050565b60006020820190506110fb6000830184610fd6565b92915050565b600081519050919050565b600082825260208201905092915050565b6000611128826111b1565b9150611133836111b1565b9250827fffffffffffffffffffffffffffffffffffffffffffffffffffffffffffffffff038211156111685761116761122d565b5b828201905092915050565b600061117e82611191565b9050919050565b60008115159050919050565b600073ffffffffffffffffffffffffffffffffffffffff82169050919050565b6000819050919050565b600060ff82169050919050565b60005b838110156111e65780820151818401526020810190506111cb565b838111156111f5576000848401525b50505050565b6000600282049050600182168061121357607f821691505b602082108114156112275761122661125c565b5b50919050565b7f4e487b7100000000000000000000000000000000000000000000000000000000600052601160045260246000fd5b7f4e487b7100000000000000000000000000000000000000000000000000000000600052602260045260246000fd5b6000601f19601f8301169050919050565b6112a581611173565b81146112b057600080fd5b50565b6112bc816111b1565b81146112c757600080fd5b5056fe45524332303a207472616e7366657220616d6f756e7420657863656564732062616c616e636545524332303a207472616e7366657220616d6f756e74206578636565647320616c6c6f77616e636545524332303a2064656372656173656420616c6c6f77616e63652062656c6f77207a65726fa2646970667358221220ff199010a4d38495faf353dfdca3c1d1331bd16d934d79b37f987d279a54981d64736f6c63430008000033",
  "linkReferences": {},
  "deployedLinkReferences": {}
}